:020000040000FA
:06000000CFEF1BF012001F
:0600080004EF08F01200F5
:060018000CEF08F01200DD
:06100000CFEF1BF012000F
:0610080016EF08F01200D3
:0610180061EF08F0120078
:02102A000000C4
:04102C00DACFE4FF34
:10103000E2CFDAFFE9CFE4FFEACFE4FFF6CFE4FF47
:10104000F7CFE4FFF5CFE4FFF3CFE4FFF4CFE4FF05
:10105000FACFE4FF00EE00F00B0EE80403E3EECF5E
:10106000E4FFFBD700EE0BF0040EE80403E3EECF41
:10107000E4FFFBD7E6523FEC12F0E55200EE0EF033
:10108000040EE80403E3E5CFEDFFFBD700EE0AF022
:101090000B0EE80403E3E5CFEDFFFBD7E5CFFAFF46
:1010A000E5CFF4FFE5CFF3FFE5CFF5FFE5CFF7FFA1
:1010B000E5CFF6FFE5CFEAFFE5CFE9FFE5CFDAFFC1
:1010C0001100D8CFE4FFE0CFE4FFE46EDACFE4FF15
:1010D000E652E552E5CFDAFFE550E5CFE0FFE5CF98
:1010E000D8FF1000D9CFE6FFE1CFD9FF080EE126E7
:1010F000470EE66E010EE66E35DBE552E552DF6E19
:10110000490EE66E010EE66E2DDBE552E552E76E06
:10111000010EE7CFDBFF020EDB6A060EDB6AA00ED4
:10112000F36E070EF3CFDBFF010EDB50030A0CE07A
:10113000010A05E0030A10E1DE52200E02D0DE5261
:10114000800EDD6E010E04D0DE52800EDD6E040EC8
:10115000F36E020EF3CFDBFF000EE66EE66A0A0EB8
:10116000E66E3DEC11F0E552E552E552030EDB6A06
:10117000020EDB50F36E030EDBCFF4FFF350F45C92
:101180006EE2E66A400EE66E030EDBCFE6FF3DEC54
:1011900011F0E552E552E552060EDB6AA00EF36E41
:1011A000070EF3CFDBFF040EDB6A010EDB50F36E9C
:1011B000040EDBCFF4FFF350F45C4EE2400EE66E1B
:1011C0007E0EE66E040EE66EE66A010EE66E29EC11
:1011D00013F00B6E050EE15E0B50F3CF9DF0F4CFD4
:1011E0009EF000019F51A01102E1000E08D09FC0A7
:1011F000E9FFA0C0EAFFEF50800B01E0010E0009FB
:10120000F0E1050EDB6A400EF36E050EDBCFF4FF56
:10121000F350F45C1EE2060EDBCF0BF0DB2A070E68
:10122000DBCF0CF001E3DB2A0BC0E6FF0CC0E6FFCE
:10123000050EDB50EA6A7E0FE96E040EEA22EF50DB
:10124000E66E3DEC11F0E552E552E552050EDB2A63
:10125000DAD7040EDB2AA9D7030EDB2A89D7080EBA
:10126000E15C02E2E16AE552E16EE552E7CFD9FFC7
:101270001200D9CFE6FFE1CFD9FF060EE126470ED7
:10128000E66E010EE66E6EDAE552E552DF6E490E4D
:10129000E66E010EE66E66DAE552E552E76E010E85
:1012A000E7CFDBFF020EDB6A010EDB50030A0CE026
:1012B000010A05E0030A10E1DE52200E02D0DE52E0
:1012C000800EDD6E010E04D0DE52800EDD6E040E47
:1012D000F36E020EF3CFDBFF000EE66EE66A0A0E37
:1012E000E66E3DEC11F0E552E552E552030EDB6A85
:1012F000020EDB50F36E030EDBCFF4FFF350F45C11
:1013000060E2E66A400EE66E030EDBCFE6FF3DECE0
:1013100011F0E552E552E552E66AA00EE66EA6EC43
:1013200010F0E552E552040EDB6A010EDB50F36E5D
:10133000040EDBCFF4FFF350F45C40E2050EDB6AF1
:10134000400EF36E050EDBCFF4FFF350F45C10E2B9
:10135000F7EC10F0E66E050EDB50EA6ABE0FE96EA0
:10136000040EEA22E552E750EF6E050EDB2AE8D7BD
:10137000400EE66EBE0EE66E040EE66E010EE66EE2
:10138000E66E29EC13F00B6E050EE15E0B50F3CF09
:101390009FF0F4CFA0F000019F51A01102E1000ED8
:1013A00008D09FC0E9FFA0C0EAFFEF50800B01E02A
:1013B000010E0009F0E1040EDB2AB7D7030EDB2A89
:1013C00097D7060EE15C02E2E16AE552E16EE55272
:1013D000E7CFD9FF1200D9CFE6FFE1CFD9FF040E46
:1013E000E126DE6ADD6ADECF0BF0DDCF0CF01E0EEB
:1013F0000B5C000E0C584DE2020EDB6A030EDB6A3A
:10140000020EDBCF0BF0030EDBCF0CF0400E0B5CBB
:10141000000E0C5816E2F7EC10F0E66E020EDBCF71
:10142000E9FF030EDBCFEAFFBE0EE926040EEA2237
:10143000E552E750EF6E020EDB2A030EE1E3DB2AF2
:10144000DFD7400EE66EBE0EE66E040EE66E010EAF
:10145000E66EE66E29EC13F00B6E050EE15E0B50A6
:10146000F3CF9FF0F4CFA0F000019F51A01102E153
:10147000000E08D09FC0E9FFA0C0EAFFEF50800B2C
:1014800001E0010E0009F0E1DF2A010EACE3DB2AE6
:10149000AAD7040EE15C02E2E16AE552E16EE55290
:1014A000E7CFD9FF120004D87CEC14F00ED8FED799
:1014B0000F0EC11200019D6B9E6B9F6BA06B02D83B
:1014C000B3EF11F043D98B8C1200200E0001E76EB0
:1014D0006019E8AE02D0E73402D0E750605D03E364
:1014E0006D50020B01E08ED000019D519E1102E172
:1014F000000E08D09DC0E9FF9EC0EAFFEF50800BB0
:1015000001E0010E000901E07DD004017E51BB0A1B
:101510005BE0610A55E0070A48E0DC0A0DE0080AD2
:1015200001E05DD08B8C000EE66EE66AA6EC10F052
:10153000E552E55250DF53D08B8C040EE66E010E5F
:10154000E66E10D9E552E5520401BE6F050EE66E57
:10155000010EE66E07D9E552E5520401BF6F400E59
:10156000E66EBE0EE66E040EE66E010EE66E010E2F
:10157000E66E29EC13F00B6E050EE15E0B50F3CF17
:101580009FF0F4CFA0F000019F51A01102E1000EE6
:1015900008D09FC0E9FFA0C0EAFFEF50800B01E038
:1015A000010E000901E0EFD71AD08B9C000EE66E09
:1015B000E66AA6EC10F0E552E5522FD98B8C0FD0DD
:1015C0008B9C57DE8B8C0BD077EC14F0640EE66EA0
:1015D000BFEC1BF0E552F29EAFEF07F000D0400EDB
:1015E000E66E7E0EE66E040EE66EE66A010EE66EAE
:1015F00029EC13F00B6E050EE15E0B50F3CF9DF05E
:10160000F4CF9EF01200120012001200120012001D
:1016100012001E0EE66E010EE66EF2EC12F0E552BE
:10162000E552400EE66E7E0EE66E040EE66EE66A4B
:10163000010EE66E29EC13F00B6E050EE15E0B5009
:10164000F3CF9DF0F4CF9EF0400EE66EBE0EE66E38
:10165000040EE66EE66A010EE66E29EC13F00B6EE0
:10166000050EE15E0B50F3CF9FF0F4CFA0F0120017
:1016700000017F0520E1000180051DE1A09AC4DF83
:101680006D920001806B0001100EA16F0E0EA26F13
:10169000A107000EA25BA151A211FAE16D84080E10
:1016A000A16F070EA26FA107000EA25BA151A211AC
:1016B000FAE16D94A08A1200D9CFE6FFE1CFD9FFFD
:1016C000FD0EDBCF06F0FE0EDBCF07F0050E061891
:1016D00001E1075036E0E868061802E17F0E0718BE
:1016E0002FE0030E061801E1075028E0020E06184D
:1016F00001E1075021E0010E061801E107501AE050
:10170000740E061801E1075013E0750E061801E18A
:1017100007500CE0730E061801E1075005E0720E49
:1017200006180FE107500DD070DF0BD06CDF09D029
:101730006BDF07D06EDF05D06BDF03D068DF01D031
:1017400065DF010EE552E7CFD9FF12009368946A76
:10175000956A926A966A8B848B9200019A6B9B6B56
:10176000956A1200D9CFE6FFE1CFD9FF020EE1263C
:10177000FD0EDBCFDEFFDBCFDDFFDF508C6EDECF7B
:101780000BF0DDCF0CF00CC00BF00CC09CF0010E88
:1017900000010C14010802E18B8001D08B90020E35
:1017A0009C15020802E18D8401D08D94040E9C15D5
:1017B000040802E18D8201D08D92080E9C15080864
:1017C00002E18D8001D08D90100E9C15100802E171
:1017D000898A01D0899A200E9C15200802E1898807
:1017E00001D08998400E9C15400802E1898601D0FD
:1017F0008996800E9C15800802E1898401D0899425
:1018000081500B6E020EE15C02E2E16AE552E16E8C
:101810000B50E552E7CFD9FF1200D9CFE6FFE1CF59
:10182000D9FF0B0EE126480EE66E010EE66E9ADF3A
:10183000E552E552DF6E470EE66E010EE66E92DF70
:10184000E552E552E76E010EE7CFDBFF020EDB6AE1
:10185000DF50070A2DE0010A1FE0030A15E0010A24
:1018600011E0070A0DE0010A09E0030A05E0010A98
:1018700021E1020EF36E19D0040E15D0080E13D01C
:10188000100E11D0200E0FD0010EDB50030802E322
:101890003F0E09D0400E07D0010EDB50030802E3D3
:1018A0007D0E01D0800EF36E020EF3CFDBFF02D06F
:1018B000020EDB680401FE6BFF6BFEC4E6FFFFC493
:1018C000E6FFA6EC10F0E552E552090EDB6A400E89
:1018D000F36E090EDBCFF4FFF350F45C0EE2A5D8F3
:1018E0000401FF2BFEC4E6FFFFC4E6FFA6EC10F0E8
:1018F000E552E552090EDB2AEAD7030EDB6A040E35
:10190000DB6A030EDBCF0BF0040EDBCF0CF0020E14
:10191000DB040D6E0E6AE8500B5C0E500C5801E3B0
:101920007AD0070EDB6A200EF36E080EF3CFDBFFD2
:10193000070EDBCFE6FF080EDBCFE6FF030EDBCFA3
:101940000BF0040EDBCF0CF0010E0B24E66E3DEC29
:1019500011F0E552E552E552E66A400EE66EF6DB1E
:10196000E552E552050EDB6A060EDB6A050EDBCF9B
:101970000BF0060EDBCF0CF0000E0B5C010E0C58CA
:1019800043E2090EDB6A400EF36E090EDBCFF4FF73
:10199000F350F45C10E2F7EC10F0E66E090EDB5049
:1019A000EA6ABE0FE96E040EEA22E552E750EF6ED6
:1019B000090EDB2AE8D7400EE66EBE0EE66E040E78
:1019C000E66E010EE66EE66E29EC13F00B6E050E68
:1019D000E15E0B50F3CF9FF0F4CFA0F000019F51D8
:1019E000A01102E1000E08D09FC0E9FFA0C0EAFFED
:1019F000EF50800B01E0010E0009F0E1050EDB2A3B
:101A0000060EB4E3DB2AB2D7030EDB2A040E01E292
:101A100078D7DB2A76D70B0EE15C02E2E16AE55269
:101A2000E16EE552E7CFD9FF120081CFBEF481CF3E
:101A3000BEF481CFBEF48C2A81CFBFF48C2A81CF33
:101A4000C0F48C2A81CFC1F48C2A81CFC2F48C2AB5
:101A500081CFC3F48C2A81CFC4F48C2A81CFC5F402
:101A60008C2A81CFC6F48C2A81CFC7F48C2A81CFEF
:101A7000C8F48C2A81CFC9F48C2A81CFCAF48C2A6D
:101A800081CFCBF48C2A81CFCCF48C2A81CFCDF4BA
:101A90008C2A81CFCEF48C2A81CFCFF48C2A81CFAF
:101AA000D0F48C2A81CFD1F48C2A81CFD2F48C2A25
:101AB00081CFD3F48C2A81CFD4F48C2A81CFD5F472
:101AC0008C2A81CFD6F48C2A81CFD7F48C2A81CF6F
:101AD000D8F48C2A81CFD9F48C2A81CFDAF48C2ADD
:101AE00081CFDBF48C2A81CFDCF48C2A81CFDDF42A
:101AF0008C2A81CFDEF48C2A81CFDFF48C2A81CF2F
:101B0000E0F48C2A81CFE1F48C2A81CFE2F48C2A94
:101B100081CFE3F48C2A81CFE4F48C2A81CFE5F4E1
:101B20008C2A81CFE6F48C2A81CFE7F48C2A81CFEE
:101B3000E8F48C2A81CFE9F48C2A81CFEAF48C2A4C
:101B400081CFEBF48C2A81CFECF48C2A81CFEDF499
:101B50008C2A81CFEEF48C2A81CFEFF48C2A81CFAE
:101B6000F0F48C2A81CFF1F48C2A81CFF2F48C2A04
:101B700081CFF3F48C2A81CFF4F48C2A81CFF5F451
:101B80008C2A81CFF6F48C2A81CFF7F48C2A81CF6E
:101B9000F8F48C2A81CFF9F48C2A81CFFAF48C2ABC
:101BA00081CFFBF48C2A81CFFCF48C2A81CFFDF409
:101BB0008C2A400EE66EBE0EE66E040EE66E010E38
:101BC000E66EE66E29EC13F00B6E050EE15E0B502F
:101BD000F3CF9FF0F4CFA0F000019F51A01102E1DC
:101BE000000E08D09FC0E9FFA0C0EAFFEF50800BB5
:101BF00001E0010E0009F0E181CFBEF48C2A81CF13
:101C0000BFF48C2A81CFC0F48C2A81CFC1F48C2AF6
:101C100081CFC2F48C2A81CFC3F48C2A81CFC4F443
:101C20008C2A81CFC5F48C2A81CFC6F48C2A81CF2F
:101C3000C7F48C2A81CFC8F48C2A81CFC9F48C2AAE
:101C400081CFCAF48C2A81CFCBF48C2A81CFCCF4FB
:101C50008C2A81CFCDF48C2A81CFCEF48C2A81CFEF
:101C6000CFF48C2A81CFD0F48C2A81CFD1F48C2A66
:101C700081CFD2F48C2A81CFD3F48C2A81CFD4F4B3
:101C80008C2A81CFD5F48C2A81CFD6F48C2A81CFAF
:101C9000D7F48C2A81CFD8F48C2A81CFD9F48C2A1E
:101CA00081CFDAF48C2A81CFDBF48C2A81CFDCF46B
:101CB0008C2A81CFDDF48C2A81CFDEF48C2A81CF6F
:101CC000DFF48C2A81CFE0F48C2A81CFE1F48C2AD6
:101CD00081CFE2F48C2A81CFE3F48C2A81CFE4F423
:101CE0008C2A81CFE5F48C2A81CFE6F48C2A81CF2F
:101CF000E7F48C2A81CFE8F48C2A81CFE9F48C2A8E
:101D000081CFEAF48C2A81CFEBF48C2A81CFECF4DA
:101D10008C2A81CFEDF48C2A81CFEEF48C2A81CFEE
:101D2000EFF48C2A81CFF0F48C2A81CFF1F48C2A45
:101D300081CFF2F48C2A81CFF3F48C2A81CFF4F492
:101D40008C2A81CFF5F48C2A81CFF6F48C2A81CFAE
:101D5000F7F48C2A81CFF8F48C2A81CFF9F48C2AFD
:101D600081CFFAF48C2A81CFFBF48C2A81CFFCF44A
:101D70008C2A81CFFDF48C2A400EE66EBE0EE66EF4
:101D8000040EE66E010EE66EE66E29EC13F00B6EA5
:101D9000050EE15E0B50F3CF9FF0F4CFA0F00001F1
:101DA0009F51A01102E1000E08D09FC0E9FFA0C022
:101DB000EAFFEF50800B01E0010E0009F0E181CF56
:101DC000BEF48C2A81CFBFF48C2A81CFC0F48C2A38
:101DD00081CFC1F48C2A81CFC2F48C2A81CFC3F485
:101DE0008C2A81CFC4F48C2A81CFC5F48C2A81CF70
:101DF000C6F48C2A81CFC7F48C2A81CFC8F48C2AF0
:101E000081CFC9F48C2A81CFCAF48C2A81CFCBF43C
:101E10008C2A81CFCCF48C2A81CFCDF48C2A81CF2F
:101E2000CEF48C2A81CFCFF48C2A81CFD0F48C2AA7
:101E300081CFD1F48C2A81CFD2F48C2A81CFD3F4F4
:101E40008C2A81CFD4F48C2A81CFD5F48C2A81CFEF
:101E5000D6F48C2A81CFD7F48C2A81CFD8F48C2A5F
:101E600081CFD9F48C2A81CFDAF48C2A81CFDBF4AC
:101E70008C2A81CFDCF48C2A81CFDDF48C2A81CFAF
:101E8000DEF48C2A81CFDFF48C2A81CFE0F48C2A17
:101E900081CFE1F48C2A81CFE2F48C2A81CFE3F464
:101EA0008C2A81CFE4F48C2A81CFE5F48C2A81CF6F
:101EB000E6F48C2A81CFE7F48C2A81CFE8F48C2ACF
:101EC00081CFE9F48C2A81CFEAF48C2A81CFEBF41C
:101ED0008C2A81CFECF48C2A81CFEDF48C2A81CF2F
:101EE000EEF48C2A81CFEFF48C2A81CFF0F48C2A87
:101EF00081CFF1F48C2A81CFF2F48C2A81CFF3F4D4
:101F00008C2A81CFF4F48C2A81CFF5F48C2A81CFEE
:101F1000F6F48C2A81CFF7F48C2A81CFF8F48C2A3E
:101F200081CFF9F48C2A81CFFAF48C2A81CFFBF48B
:101F30008C2A81CFFCF48C2A81CFFDF48C2A400EB0
:101F4000E66EBE0EE66E040EE66E010EE66EE66E00
:101F500029EC13F00B6E050EE15E0B50F3CF9FF0F2
:101F6000F4CFA0F000019F51A01102E1000E08D0B3
:101F70009FC0E9FFA0C0EAFFEF50800B01E0010E17
:101F80000009F0E181CFBEF48C2A81CFBFF48C2A06
:101F900081CFC0F48C2A81CFC1F48C2A81CFC2F4C6
:101FA0008C2A81CFC3F48C2A81CFC4F48C2A81CFB0
:101FB000C5F48C2A81CFC6F48C2A81CFC7F48C2A31
:101FC00081CFC8F48C2A81CFC9F48C2A81CFCAF47E
:101FD0008C2A81CFCBF48C2A81CFCCF48C2A81CF70
:101FE000CDF48C2A81CFCEF48C2A81CFCFF48C2AE9
:101FF00081CFD0F48C2A81CFD1F48C2A81CFD2F436
:102000008C2A81CFD3F48C2A81CFD4F48C2A81CF2F
:10201000D5F48C2A81CFD6F48C2A81CFD7F48C2AA0
:1020200081CFD8F48C2A81CFD9F48C2A81CFDAF4ED
:102030008C2A81CFDBF48C2A81CFDCF48C2A81CFEF
:10204000DDF48C2A81CFDEF48C2A81CFDFF48C2A58
:1020500081CFE0F48C2A81CFE1F48C2A81CFE2F4A5
:102060008C2A81CFE3F48C2A81CFE4F48C2A81CFAF
:10207000E5F48C2A81CFE6F48C2A81CFE7F48C2A10
:1020800081CFE8F48C2A81CFE9F48C2A81CFEAF45D
:102090008C2A81CFEBF48C2A81CFECF48C2A81CF6F
:1020A000EDF48C2A81CFEEF48C2A81CFEFF48C2AC8
:1020B00081CFF0F48C2A81CFF1F48C2A81CFF2F415
:1020C0008C2A81CFF3F48C2A81CFF4F48C2A81CF2F
:1020D000F5F48C2A81CFF6F48C2A81CFF7F48C2A80
:1020E00081CFF8F48C2A81CFF9F48C2A81CFFAF4CD
:1020F0008C2A81CFFBF48C2A81CFFCF48C2A81CFEF
:10210000FDF48C2A400EE66EBE0EE66E040EE66E00
:10211000010EE66EE66E29EC13F00B6E050EE15E25
:102120000B50F3CF9FF0F4CFA0F000019F51A0110E
:1021300002E1000E08D09FC0E9FFA0C0EAFFEF5007
:10214000800B01E0010E0009F0E11200D9CFE6FF9B
:10215000E1CFD9FFFD0EDBCFFEF4FE0EDBCFFFF4A7
:10216000956AFEC48CFFFFC49CF0010E00019C1513
:10217000010802E18B8001D08B90020E9C150208B1
:1021800002E18D8401D08D94040E9C15040802E1B7
:102190008D8201D08D92080E9C15080802E18D8079
:1021A00001D08D90100E9C15100802E1898A01D093
:1021B000899A200E9C15200802E1898801D089980F
:1021C000400E9C15400802E1898601D08996800E58
:1021D0009C15800802E1898401D08994E552E7CFFB
:1021E000D9FF1200FEC4F3FFFFC4F4FF1200FEC4C7
:1021F0008CFF0401FE513BE1FFC49CF0010E000185
:102200009C15010802E18B8001D08B90020E9C1579
:10221000020802E18D8401D08D94040E9C150408FF
:1022200002E18D8201D08D92080E9C15080802E112
:102230008D8001D08D90100E9C15100802E1898AC6
:1022400001D0899A200E9C15200802E1898801D0CE
:102250008998400E9C15400802E1898601D0899634
:10226000800E9C15800802E1898401D089940401C4
:10227000FE2B000EFF2381501200D9CFE6FFE1CFE5
:10228000D9FF020EE126FC0EDBCFDEFFDBCFDDFF48
:10229000936AFE0EDB508A6E8B82DF508C6EDECF2F
:1022A0000BF0DDCF0CF00CC00BF00C6A0BC09CF0F7
:1022B000010E00010B14010802E18B8001D08B900C
:1022C000020E9C15020802E18D8401D08D94040E4B
:1022D0009C15040802E18D8201D08D92080E9C1598
:1022E000080802E18D8001D08D90100E9C15100819
:1022F00002E1898A01D0899A200E9C15200802E10A
:10230000898801D08998400E9C15400802E1898691
:1023100001D08996800E9C15800802E1898401D045
:102320008994010EE66E92EC1BF0E5528B94010E3F
:10233000E66E92EC1BF0E5528B84010EE66E92EC99
:102340001BF0E5528B92010EE66E92EC1BF0E5520B
:102350009368020EE15C02E2E16AE552E16EE55249
:06236000E7CFD9FF1200D7
:0A236600D9CFE6FFE1CFD9FFE65220
:10237000A09A6A6A686A706A010EE66EE66AE66AA0
:10238000710EE66E0F0EE66E78EC1BF00B6E050E0E
:10239000E15E0B50170E6F6E9F0E6B6E7B0E696EBB
:1023A000DF6ADF500B6E0C6A060E0B5C000E0C58D9
:1023B00010E2DF50040DF3CFE9FFF4CFEAFF000E87
:1023C000E926040EEA22EE6AEE6AEE6AEE6ADF2A77
:1023D000E8D76D8C6E6A6D986D9C68A607D068967C
:1023E0000001736B786B796B7A6BF7D70001010E84
:1023F0008A6F8B6F8C6B8D6B806BDF6A020EDF5C7C
:1024000026E2EA6ADF34FE0BEA36E96E6B0EE92655
:10241000000EEA22EE6AED6AEA6ADF34FE0BEA3663
:10242000E96E670EE926000EEA22EE6AED6ADF50D9
:10243000EA6A840FE96E000EEA22EF6ADF50EA6A68
:10244000860FE96E000EEA22EF6ADF2AD7D7000175
:10245000040E6B6F040E6C6F160E706E0401180E76
:10246000026F040E036F400E016F840E006F0001B7
:10247000616B606BE552E552E7CFD9FF1200D9CF0F
:10248000E6FFE1CFD9FFE6520001600507E16DBA32
:1024900005D0686A69806988020E606F6850040B15
:1024A00006E06950040B03E068942FEC18F06DB25D
:1024B00059D06850010B09E06950010B06E053DF69
:1024C000A08A0001040E606F68906850100B06E04F
:1024D0006950100B03E01AEC18F0689868AC19D03A
:1024E00069AC0FD0010EE66EE66A000EE66EE66A93
:1024F000730EE66EE66A5CEC0BF00B6E060EE15EA8
:102500000B50689C0001885101E08807885101E167
:102510000ADA6850200B05E06950200B02E001EC5C
:1025200018F06850020B13E06950020B10E0010E26
:10253000E66EE66A000EE66EE66AE6687F0EE66E16
:102540005CEC0BF00B6E060EE15E0B506A6A040E3B
:102550000001E76E6019E8AE02D0E73402D0E75020
:10256000605D02E2A19A39D069A636D0DF6A040E16
:10257000DF5C32E268A630D06CCF81F0000181517F
:10258000780BE842E842E842826F689681B506D04F
:102590008251EA6A860FE96E000E05D08251EA6A1E
:1025A000840FE96E000EEA22EF70825103E146ECDF
:1025B00018F010D0000EE66EE66A810EE66E000E90
:1025C000E66E720EE66EE66A5CEC0BF00B6E060EC3
:1025D000E15E0B50DF2ACBD7A19AE552E552E7CF57
:1025E000D9FF1200D9CFE6FFE1CFD9FF020EE126D5
:1025F000FD0EDBA407D0E66AFE0EDBCFE6FF07DAAE
:10260000E552E552FD0EDBA208D0010EE66EFE0E8D
:10261000DBCFE6FFFCD9E552E552FE0EDB500C6A3B
:10262000700F0B6E0F0E0C220BC0DEFF0CC0DDFF17
:10263000DECFE9FFDDCFEAFFFD0EDBCFEFFF020EBD
:10264000E15C02E2E16AE552E16EE552E7CFD9FFD3
:102650001200D9CFE6FFE1CFD9FF020EE126FD0E31
:10266000DB500AE0FE0EEA6ADB34FE0BEA36E96E66
:102670006B0EE926000E09D0FE0EEA6ADB34FE0B73
:10268000EA36E96E670EE926000EEA22EECFDEFF9B
:10269000EDCFDDFFD9CFE9FFDACFEAFFEE50ED1045
:1026A00003E1F36AF46A44D0DECFE9FFDDCFEAFF4D
:1026B000020EE926000EEA22FB0EDBCFEEFFFC0E37
:1026C000DBCFEDFFDECFE9FFDDCFEAFFEE52FA0E02
:1026D000DBCFEFFF400EDECFE9FFDDCFEAFFE850B2
:1026E000EF16880EDECFE9FFDDCFEAFFE850EF12EC
:1026F000FD0EDB500AE0FE0EEA6ADB34FE0BEA3622
:10270000E96E6B0EE926000E09D0FE0EEA6ADB3494
:10271000FE0BEA36E96E670EE926000EEA22EF7438
:10272000DECF0BF0DDCF0CF00BC0F3FF0CC0F4FFDD
:10273000020EE15C02E2E16AE552E16EE552E7CFAA
:10274000D9FF1200D9CFE6FFE1CFD9FF020EE12673
:10275000FE0EDB5020E165C0E9FF66C0EAFFEE52E5
:10276000400EEF6E65C0E9FF66C0EAFF020EE92683
:10277000000EEA22180EEE6E040EED6E65C0E9FF43
:1027800066C0EAFF8C0EEF6E6BC0E9FF6CC0EAFF1B
:10279000840EEF6E4AD0FE0EDB5002E1000E01D037
:1027A000FE0E0E6EFD0EDB50E8240D6EFE0EDB50AD
:1027B000040DF3500D240E24040DF3CF0BF0F4CFD1
:1027C0000CF0000E0B26040E0C220BC0DEFF0CC01A
:1027D000DDFF840EDECFE9FFDDCFEAFFE850EF1228
:1027E000FE0EDB5002E1000E01D0FF0E0E6EFD0E5C
:1027F000DB50E8240D6EFE0EDB50040DF3500D246B
:102800000E24040DF3CF0BF0F4CF0CF0000E0B26CA
:10281000040E0C220BC0DEFF0CC0DDFF840EDECFE9
:10282000E9FFDDCFEAFFE850EF12020EE15C02E2C1
:10283000E16AE552E16EE552E7CFD9FF1200D9CF48
:10284000E6FFE1CFD9FF6DA84ED0FE0EEA6ADB3479
:10285000FE0BEA36E96E6B0EE926000EEA22EE5018
:10286000EFCFEAFFE96E400EEE16EE6AEE6AEE6A10
:10287000FE0EEA6ADB34FE0BEA36E96E6B0EE926E1
:10288000000EEA22EE50EFCFEAFFE96EEE7CFE0E7C
:10289000EA6ADB34FE0BEA36E96E6B0EE926000EBF
:1028A000EA22EF74400E0B6EFE0EEA6ADB34FE0B7A
:1028B000EA36E96E6B0EE926000EEA22EE50EFCF03
:1028C000EAFFE96E0B50EF16FE0EEA6ADB34FE0BF0
:1028D000EA36E96E6B0EE926000EEA22EE50EFCFE3
:1028E000EAFFE96EEF7CE552E7CFD9FF12006D6A8F
:1028F000696A0001606B12000001605113E16D6AAA
:10290000696A170E6F6E9F0E6B6E7B0E696ED08EAE
:10291000A28AA08AF28E6DB602D06D86FCD7000125
:10292000010E606F120000018A5132E1010E8A6FC0
:102930008B512EE1010E8B6F020E705D0DE16BC0AD
:10294000E9FF6CC0EAFFEE52EF6A6BC0E9FF6CC0B2
:10295000EAFFC80EEF6E120070051AE1836B65C0C6
:10296000E9FF66C0EAFFEE52400EEF6E65C0E9FF78
:1029700066C0EAFF020EE926000EEA22180EEE6E8D
:10298000040EED6E65C0E9FF66C0EAFF800EEF6ED3
:10299000120000018C6B8D6B020E705D18E165C03A
:1029A000E9FF66C0EAFFEE52400EEF6E65C0E9FF38
:1029B00066C0EAFF020EE926000EEA22200EEE6E45
:1029C000040EED6E65C0E9FF66C0EAFF1DD07451CC
:1029D00004011E5D0001755104011F5904E21EC46B
:1029E00074F01FC475F0D5D86BC0E9FF6CC0EAFF66
:1029F000020EE926000EEA22200EEE6E040EED6EA7
:102A00006BC0E9FF6CC0EAFFC80EEF6E1200D9CFB1
:102A1000E6FFE1CFD9FF020EE126000EDE6E040EC6
:102A2000DD6EFE0EDB5002E1000E01D0FE0E0E6EDA
:102A3000FD0EDB50E8240D6EFE0EDB50040DF3504E
:102A40000D240E24040DF4CF0CF0D9CFE9FFDACF1A
:102A5000EAFFF350EE260C50ED22DECFE9FFDDCF8A
:102A6000EAFFEF9EFD0EDB500AE1FE0EEA6ADB3460
:102A7000FE0BEA36E96E670EE926000E09D0FE0E5F
:102A8000EA6ADB34FE0BEA36E96E6B0EE926000ECD
:102A9000EA22DECFEEFFDDCFEDFFFE0EDB500EE0D3
:102AA000DECFE9FFDDCFEAFFEF9CDECFE9FFDDCF30
:102AB000EAFF040EE926000EEA22EF8C020EE15C2A
:102AC00002E2E16AE552E16EE552E7CFD9FF12007A
:102AD0006D98000173BF2BD078AF09D0020E706FD4
:102AE0008D5101E156DF00018B6B8A6B120065C0CE
:102AF000E9FF66C0EAFFEE52400EEF6E65C0E9FFE7
:102B000066C0EAFF020EE926000EEA22180EEE6EFB
:102B1000040EED6E65C0E9FF66C0EAFF8C0EEF6E35
:102B20006BC0E9FF6CC0EAFF840EEF6E1200040177
:102B300018AF0DD00001010E706F8C5101E129DF3B
:102B400000018B6B8A6B895123E193EF14F0000134
:102B5000020E706F65C0E9FF66C0EAFFEE52400EDC
:102B6000EF6E65C0E9FF66C0EAFF020EE926000EBF
:102B7000EA22180EEE6E040EED6E65C0E9FF66C027
:102B8000EAFF840EEF6E8B6B8A6B895101E1CBDE1D
:102B90001200D9CFE6FFE1CFD9FFE652400EDF6E3B
:102BA0000001745D000E75590AE274C0DFFF6F51B9
:102BB00002E1010E03D06F0502E1020E6F6FDF50DC
:102BC0000C6AE850745D746F0C507559756F6BC06A
:102BD000E9FF6CC0EAFFEE52DFCFEFFF200E7D6F02
:102BE000040E7E6F73B118D0DF502DE071C0F6FF78
:102BF00072C0F7FF712B000E72230800F550E66ECD
:102C00007DC0E9FF7EC0EAFF7D2B000E7E23E552EA
:102C1000E750EF6EDF06E8D7DF5015E071C0E9FF3F
:102C200072C0EAFF712B000E7223EF50E66E7DC07A
:102C3000E9FF7EC0EAFF7D2B000E7E23E552E750C0
:102C4000EF6EDF06E9D7E552E552E7CFD9FF120074
:102C5000D9CFE6FFE1CFD9FF020EE12663C0E9FF3D
:102C600064C0EAFFEE52EFCFDFFFDFCF0BF00B5077
:102C70000001795D000E7A5902E279C0DFFFDF5072
:102C80000B6E0C6AE850795D796F0C507A597A6F47
:102C9000010EDB6ADF50F36E010EDBCFF4FFF35061
:102CA000F45C16E2010EDB50EA6A200FE96E040EB6
:102CB000EA22EF50E66E76C0E9FF77C0EAFF762B96
:102CC000000E7723E552E750EF6E010EDB2AE2D7C4
:102CD000000ED8807955000E7A5527E265C0E9FFCD
:102CE00066C0EAFFEE52400EEF6E65C0E9FF66C0B7
:102CF000EAFF020EE926000EEA22200EEE6E040E16
:102D0000ED6E63C0E9FF64C0EAFFEF50400B06E1DF
:102D100065C0E9FF66C0EAFFC80E05D065C0E9FFDF
:102D200066C0EAFF880EEF6E28D065C0E9FF66C076
:102D3000EAFFEE52400EEF6E65C0E9FF66C0EAFFA3
:102D4000020EE926000EEA22180EEE6E040EED6E5B
:102D500065C0E9FF66C0EAFF840EEF6E7B517C110F
:102D600007E005D07CC0FAFF00017B51F96EFADF65
:102D70000001789F895101E1D6DD020EE15C02E29B
:102D8000E16AE552E16EE552E7CFD9FF1200D9CFF3
:102D9000E6FFE1CFD9FFE6520001738F010EE66E28
:102DA000E66AE66A710EE66E0F0EE66E78EC1BF0D0
:102DB0000B6E050EE15E0B50DF6ADF500B6E0C6A86
:102DC000060E0B5C000E0C5810E2DF50040DF3CF22
:102DD000E9FFF4CFEAFF000EE926040EEA22EE6ACC
:102DE000EE6AEE6AEE6ADF2AE8D76D8CDF6A020EC1
:102DF000DF5C10E2DF50EA6A840FE96E000EEA221F
:102E0000EF6ADF50EA6A860FE96E000EEA22EF6A87
:102E1000DF2AEDD7010EE66EE66AE66A620EE66E1E
:102E2000000EE66E78EC1BF00B6E050EE15E0B50AB
:102E30006D9C0001040E6B6F040E6C6F000E636FCF
:102E4000040E646F63C065F0666F1AC461F061516F
:102E500002E1100E12D0010EE66EE66A610EE66E19
:102E6000000EE66E010EE66EE66A5CEC0BF00B6E91
:102E7000060EE15E0B500001200E606FE552E55238
:102E8000E7CFD9FF1200800E0401185D58E1000160
:102E9000C00E736F04011B51030A2FE0010A09E001
:102EA000030A4BE10001760E716F360E726F120E3F
:102EB0003ED01A51F66EF76AD890F636F736E80E1D
:102EC000F626360EF7220900F5CF71F00A00F5CF8D
:102ED00072F0020E0001F76A7125F66E7251F72248
:102EE0000800F5CF74F0030EF76A7125F66E725183
:102EF000F7220800F5CF75F01200030E1A5D1AE2F2
:102F00001A51F66EF76AD890F636F736EA0EF626BC
:102F1000360EF7220900F5CF71F00A00F5CF72F0F6
:102F200071C0F6FF72C0F7FF0800F5500001746F22
:102F3000756B12000001736B12000001736B1200BD
:102F4000D9CFE6FFE1CFD9FF020EE1260401206BC5
:102F5000216B18511F0B020A11E0030A0CE0010A51
:102F60003CE10001738F0401208100017F0535E100
:102F70000401208332D00001738F2FD00001738FA2
:102F800004011CBF0BD01C510F0BE96EEA6AD890EC
:102F9000E936EA36670EE926000E0AD01C510F0BFF
:102FA000E96EEA6AD890E936EA366B0EE926000E39
:102FB000EA22EECFDEFFEDCFDDFFDECFE9FFDDCF92
:102FC000EAFFEF50800B09E0DECFE9FFDDCFEAFF3B
:102FD000EF50040B02E0010E206F000173AF07D029
:102FE000200E716F040E726F7381020E746F020EE9
:102FF000E15C02E2E16AE552E16EE552E7CFD9FF1A
:10300000120070A015D063C0E9FF64C0EAFFEF5062
:1030100080080DE16BC0E9FF6CC0EAFFEF50840847
:1030200006E163C0E9FF64C0EAFF8C0EEF6E7090AA
:10303000689A1200698468986D820001010E806FA1
:10304000000EE66EE66AE66EE66A750EE66EE66A03
:103050005CEC0BF00B6E060EE15E0B5012000001F3
:10306000806B000EE66EE66AE66EE66A740EE66E49
:10307000E66A5CEC0BF00B6E060EE15E0B506D9297
:10308000699468A402D06894FCD71200D9CFE6FFF7
:10309000E1CFD9FFE65200012D0E886FFD0E81159C
:1030A00052E17E0E8115E8407F0B040DF3CF63F0F3
:1030B000F4CF64F0000E6327040E642363C065F050
:1030C00064C066F063C0E9FF64C0EAFFEF503C0BE8
:1030D000E842E8420D0835E1DF6A080EDF5C23E2D2
:1030E00063C0E9FF64C0EAFF020EE926000EEA228F
:1030F000EE50EFCFEAFFE96EEF50E66EDF50EA6A7E
:10310000180FE96E040EEA22E552E750EF6E63C035
:10311000E9FF64C0EAFF020EE926000EEA22EE2A69
:10312000EF22DF2ADAD763C0E9FF64C0EAFF020EAC
:10313000E926000EEA22180EEE6E040EED6E0DD892
:1031400007D038D805D0FD0E8115040801E157D805
:10315000E552E552E7CFD9FF120000016F6B896B92
:103160008C6B8D6B836B706B6BC0E9FF6CC0EAFF7F
:10317000EF9E6BC0E9FF6CC0EAFFEF9E65C0E9FF00
:1031800066C0EAFFEF9E736B746B756B786B796B3F
:103190007A6B8BD8000EE66EE66AE66EE66A030E80
:1031A000E66EE66A5CEC0BF00B6E060EE15E0B5011
:1031B00068EF15F0020E0001705D02E128EF16F0D5
:1031C000706B83511AE165C0E9FF66C0EAFFEE52F9
:1031D000400EEF6E65C0E9FF66C0EAFF020EE92609
:1031E000000EEA22180EEE6E040EED6E65C0E9FFC9
:1031F00066C0EAFF8C0EEF6E1200836B1200D9CF0F
:10320000E6FFE1CFD9FFE6526BC0E9FF6CC0EAFFF1
:10321000EF50400B01E0010EDF6E080E0001605D13
:1032200008E11AC46EFF6E5002E0100E01D0040EC9
:10323000606F700526E16BC0E9FF6CC0EAFF020E0B
:10324000E926000EEA22200EEE6E040EED6EA1DCE1
:10325000020E00016F5D06E16BC0E9FF6CC0EAFF82
:10326000840E0DD0DF5006E16BC0E9FF6CC0EAFFB1
:10327000C80E05D06BC0E9FF6CC0EAFF880EEF6E88
:103280000FD078AF0CD07B517C1107E005D07CC00B
:10329000FAFF00017B51F96EFADF0001789F706B35
:1032A000E552E552E7CFD9FF120004011851600B37
:1032B000E842E842E842E842E842000901E0120040
:1032C00019510C0A50E00B0A3FE00C0A31E0010AE8
:1032D00022E00B0A1EE0020A1CE0030A18E0080ABA
:1032E00010E0010A0CE00F0A08E0030A01E01200F6
:1032F0000001738F080E606F120043EF17F0C7EFE5
:1033000016F00001610E716F000E726F0CD0A0EF0D
:1033100017F0B4EF19F01C510001716F726B620E5F
:103320007127000E72237381010E746F738F120068
:103330000001738F04011C51EA6A620FE96E000EEE
:10334000EA221AC4EFFF1200000EE66EE66AE66E8D
:10335000E66A020EE66EE66A5CEC0BF00B6E060E99
:10336000E15E0B5012001200D9CFE6FFE1CFD9FF8A
:10337000050EE12604011A0510E118511F0B000982
:103380000CE10001738F030E0401195D04E10001DB
:10339000010E7F6F02D000017F6B04011A5101E022
:1033A00011D118511F0B020801E00CD11C510F0B59
:1033B000000901E107D11C510F0B010801E202D104
:1033C000200E0001605D01E0FDD0738F04011CBF81
:1033D00016D01C510F0BE96EEA6AD890E936EA362E
:1033E000670EE926000EEA22EECFDEFFEDCFDDFF0D
:1033F0001C510F0BEA6A860FE96E000E15D01C51A6
:103400000F0BE96EEA6AD890E936EA366B0EE926C8
:10341000000EEA22EECFDEFFEDCFDDFF1C510F0BD9
:10342000EA6A840FE96E000EEA22020EEFCFDBFF9C
:10343000D950020FE96EDACFEAFFEF50010B03E13A
:10344000000EDF9401D0DF841CBF0BD01C510F0B8A
:10345000E96EEA6AD890E936EA36670EE926000E88
:103460000AD01C510F0BE96EEA6AD890E936EA36A9
:103470006B0EE926000EEA22DECFEEFFDDCFEDFF78
:10348000030E195D20E1DECFE9FFDDCFEAFFEF504B
:10349000800B11E01CBF07D01C510F0BEA6A860F8E
:1034A000E96E000E06D01C510F0BEA6A840FE96E1C
:1034B000000EEA22EF82840EDECFE9FFDDCFEAFFC5
:1034C000E850EF127FD0DF74DECFE9FFDDCFEAFFF7
:1034D000EF50800B1BE0DECFE9FFDDCFEAFFEF9E70
:1034E000DECFE9FFDDCFEAFFEF8C020EE66EE66A83
:1034F000DECFE6FFDDCFE6FF050EE66EE66A5CECAA
:103500000BF00B6E060EE15E0B5005D0DECFE9FF2F
:10351000DDCFEAFFEF8CDF74D950020FE96EDACF0E
:10352000EAFFEF50020B07E1DECFE9FFDDCFEAFF54
:10353000EF50800B2BE004011CBF07D01C510F0B78
:10354000EA6A860FE96E000E06D01C510F0BEA6A7C
:10355000840FE96E000EEA22EF923B0E0B6EDECF77
:10356000E9FFDDCFEAFFE850EF16020EE66EE66AED
:10357000DECFE6FFDDCFE6FF050EE66EE66A5CEC29
:103580000BF00B6E060EE15E0B5007D03B0EDECF4C
:10359000E9FFDDCFEAFFE850EF1604011C510F0BE5
:1035A0000C6A700F0B6E0F0E0C22030E0BC0DBFFAC
:1035B000040E0CC0DBFF030EDBCFE9FF040EDBCFF4
:1035C000EAFFEF90050EE15C02E2E16AE552E16E8E
:0835D000E552E7CFD9FF12001C
:0835D8002A0EF66E100EF76ECC
:1035E000000EF86E00010900F550A86F0900F550B3
:1035F000A96F03E1A86701D03DD00900F550A36F82
:103600000900F550A46F0900F550A56F09000900E5
:10361000F550E96E0900F550EA6E0900090009004D
:10362000F550A66F0900F550A76F09000900F6CF05
:10363000AAF0F7CFABF0F8CFACF0A3C0F6FFA4C070
:10364000F7FFA5C0F8FF0001A65302E1A75307E06A
:103650000900F550EE6EA607F8E2A707F9D7AAC051
:10366000F6FFABC0F7FFACC0F8FF0001A807000EE3
:06367000A95BBFD71200A8
:0A3676001201000200000040C0161F
:10368000DD0500000102000109022000010100C067
:10369000320904000002FFFFFF000705010240009D
:1036A0000A0705810240000A0403090416035200B8
:1036B0006900760061006C002D0043006F0072000D
:1036C00070002603550053004200200047006100AF
:1036D0006D00650062006F007900200044007500F5
:1036E0006D007000650072008836A836AC36C236B0
:1036F000FE0EE3CFE9FFFF0EE3CFEAFFE9CFF3FFD2
:10370000EACFF4FFFB0EE35003E1FC0EE35009E0C7
:10371000FB0EE30602E2FC0EE306FD0EE350EE6E46
:04372000F1D71200CB
:0C372400FF0EE350106EEF0E01D0F30E0C
:10373000E76EE72E99EF1BF00C0E0F6EE76AE72E8F
:103740009FEF1BF00F2E9EEF1BF0102E97EF1BF03C
:02375000120065
:0E375200000EF36E00EE00F0020E07D8000E1F
:10376000F36E04EE00F0050E01D81200EA6002D0FC
:0E377000EE6AFCD7F350E9601200EE6AFCD757
:02377E00FF0E3C
:10378000E350106E480E01D04C0EE76EE72EFED7C8
:0E379000E76AE72EFED7102EF7D700001200D2
:02379E0011EE2A
:1037A00000F021EE00F0F86A0A9CECEC1AF0DDEC77
:0A37B0001BF053EC0AF0FBD71200E7
:0237BA001200FB
:020000040030CA
:0100000024DB
:010001000EF0
:0100020037C6
:010003001EDE
:01000500807A
:010006008178
:0100080003F4
:0100090040B6
:01000A0003F2
:01000B006094
:01000C0003F0
:01000D0040B2
:00000001FF
