:020000040000FA
:06000000BFEF15F0120035
:0600080004EF08F01200F5
:060018000CEF08F01200DD
:06100000BFEF15F0120025
:06100800A2EF0EF0120041
:06101800EDEF0EF01200E6
:02102A000000C4
:04102C006CEC0EF06A
:10103000A09A6A6A686A706AB7EC0DF005EC0EF067
:10104000DF6AEDEC0DF003E29DEC0DF0FAD76D8C4C
:101050006E6A6D986D9C68A607D068960001736BE8
:10106000786B796B7A6BF7D70001010E8A6F8B6F03
:101070008C6B8D6B806BDF6A020EDF5C11E2EA6ABB
:10108000DF346FEC0EF0EA22EE6AED6AEA6ADF34D2
:1010900076EC0EF0EA22EE6AED6AADEC0DF0ECD7DC
:1010A0000001040E6B6F040E6C6F160E706E04015F
:1010B000180E026F040E036F400E016F840E006F56
:1010C0000001616B606BE55274EF0DF06CEC0EF09B
:1010D0000001600507E16DBA05D0686A698069881A
:1010E000020E606F6850040B05E06950040B02E0CB
:1010F000689442DB6DB245D06850010B09E069503D
:10110000010B06E093DFA08A0001040E606F689077
:101110006850100B05E06950100B02E023DB689863
:1011200068AC0FD069AC05D00CEC0EF0730E61EC1E
:101130000DF0689C0001885101E08807885101E1A9
:1011400010D96850200B04E06950200B01E0FADA56
:101150006850020B0BE06950020B08E00CEC0EF03B
:10116000E6687F0EE66E7DEC0EF06A6A040E000102
:10117000E76E6019E8AE02D0E73402D0E750605D58
:1011800002E2A19A2ED069A62BD0DF6A040EDF5CA2
:1011900027E268A625D06CCF81F000018151780B41
:1011A000E842E842E842826F689681B504D08251F5
:1011B00084EC0EF003D0825189EC0EF0EA22EF703D
:1011C000825102E1E5DA0AD0000EE66EE66A810E8F
:1011D000E66E000EE66E720E61EC0DF0DF2AD6D7D9
:1011E000A19AE55274EF0DF039EC0EF0FD0EDBA480
:1011F00003D0E66AF5EC0DF0FD0EDBA204D0010E83
:10120000E66EF5EC0DF0FE0EDB500C6A700F0B6E07
:101210000F0EE7EC0DF065EC0DF0FD0EDBCFEFFFF0
:10122000020EE15C02E2E16AE552E16E74EF0DF05C
:1012300039EC0EF0FD0EDB5003E05CEC0DF002D05B
:1012400093EC0DF0D3EC0DF0D9CFE9FFDACFEAFF44
:10125000EE50ED1003E1F36AF46A28D065EC0DF06E
:1012600047EC0EF0FB0EDBCFEEFFFC0EDBCFEDFF0D
:1012700065EC0DF0EE52FA0EDBCFEFFF400E8EEC78
:101280000EF0880E9EEC0EF0FD0EDB5003E05CECE1
:101290000DF002D093EC0DF0EA22EF74DECF0BF0EC
:1012A000DDCF0CF00BC0F3FF0CC0F4FF020EE15CCD
:1012B00002E2E16AE552E16E74EF0DF039EC0EF0F6
:1012C000FE0EDB5003E14CEC0EF010D0FE0EDB50B6
:1012D00002E1000E01D0FE0E2DEC0EF0FE0EDB50F2
:1012E00002E1000E01D0FF0E2DEC0EF0020EE15CCB
:1012F00002E2E16AE552E16E74EF0DF06FEC0DF081
:101300006DA816D05DEC0EF0400EEE16EE6AEE6A99
:10131000EE6A5DEC0EF0EE7CCFDBEA22EF74400E5D
:101320000B6E5DEC0EF00B50EF165DEC0EF0EF7CEB
:10133000DBD36D6A696A0001606B120000016051C5
:101340000FE16D6A696A05EC0EF0D08EA28AA08A60
:10135000F28E6DB602D06D86FCD70001010E606F73
:10136000120000018A5116E1010E8A6F8B5112E1C1
:10137000010E8B6F020E705D07E1ACDBEE52EF6A7F
:10138000A9DBC80EEF6E1200700504E1836B90DBE1
:10139000800EEF6E120000018C6B8D6B020E705D83
:1013A00006E192EC0EF0B9DB28EC0EF010D074518F
:1013B00004011E5D0001755104011F5904E21EC4A1
:1013C00074F01FC475F069D885DBA7DB83DBC80E1A
:1013D000EF6E120039EC0EF0000EDE6E040EDD6EC4
:1013E000FE0EDB5002E1000E01D0FE0E89DBF4CFD1
:1013F0000CF0D9CFE9FFDACFEAFFF350EE260C501C
:10140000ED2263DBEF9EFD0EDB5002E18CDB01D0B1
:1014100053DBEA22DECFEEFFDDCFEDFFFE0EDB5029
:1014200008E053DBEF9C51DB040EE926000EEA22B4
:10143000EF8C020EE15C02E2E16AE552E16E54D308
:101440006D98000173BF0DD078AF09D0020E706F98
:101450008D5101E1A0DF00018B6B8A6B12004CEF14
:101460000EF0040118AF0DD00001010E706F8C5109
:1014700001E191DF00018B6B8A6B89510DE1B1EFC6
:1014800009F00001020E706F13DB840EEF6E8B6BA0
:101490008A6B895101E165DF12006CEC0EF0400EA1
:1014A000DF6E0001745D000E75590AE274C0DFFF43
:1014B0006F5102E1010E03D06F0502E1020E6F6F62
:1014C000DF500C6AE850745D746F0C507559756F7D
:1014D00001DBEE52DFCFEFFF200E7D6F040E7E6F3B
:1014E00073B10DD0DF5017E071C0F6FF72C0F7FF87
:1014F000712B000E72230800F55048DBF3D7DF5044
:101500000AE071C0E9FF72C0EAFF712B000E72237E
:10151000EF503CDBF4D7E552E7D2ABDB09DBEE5210
:10152000EFCFDFFFDFCF0BF00B500001795D000E36
:101530007A5902E279C0DFFFDF500B6E0C6AE85087
:10154000795D796F0C507A597A6F010EDB6ADF5042
:10155000F36E010EDBCFF4FFF350F45C16E2010EE4
:10156000DB50EA6A200FE96E040EEA22EF50E66EC5
:1015700076C0E9FF77C0EAFF762B000E7723E552AD
:10158000E750EF6E010EDB2AE2D7000ED8807955C6
:10159000000E7A550DE2C6DBC0DACADAEF50400B16
:1015A00003E156DBC80E02D053DB880EEF6E12D07B
:1015B0007FDA840EEF6E7B517C1107E005D07CC092
:1015C000FAFF00017B51F96EFADF0001789F895123
:1015D00001E1C7DE020EE15C02E2E16AE552E16E82
:1015E00083D27ADB0001738FC2DADF6AF6DA02E2B5
:1015F000A4DAFCD76D8CDF6A020EDF5C02E2ADDAA2
:10160000FBD7010EE66EE66AE66A620EE66E000E33
:101610005BDB6D9C0001040E6B6F040E6C6F000EA3
:10162000636F040E646F63C065F0666F1AC461F087
:10163000615102E1100E0BD0010EE66EE66A610EFA
:10164000E66E000EE66E010E3CDA0001200E606FC1
:10165000E5524AD2800E0401185D38E10001C00E47
:10166000736F04011B51030A1AE0010A09E0030A1F
:101670002BE10001840E716F2A0E726F120E1ED0C4
:10168000D9DAF60EF6262A0EB8DA020E0001CBDA07
:10169000F5CF74F0030EC7DAF5CF75F01200030E24
:1016A0001A5D0FE2C7DAF80EF6262A0EA6DA71C026
:1016B000F6FF72C0F7FF0800F5500001746F756BFC
:1016C00012000001736B12000001736B1200D1DA7B
:1016D0000401206B216B18511F0B020A11E0030A51
:1016E0000CE0010A1EE10001738F0401208100015A
:1016F0007F0517E10401208314D00001738F11D0FE
:101700000001738F04011CBF02D0CDDA01D0D0DA02
:101710004ADAD6DA06E0D9D9EF50040B02E0010E1E
:10172000206F000173AF07D0200E716F040E726F2F
:101730007381020E746F020EE15C02E2E16AE5520F
:10174000E16ED2D170A00CD0F3D9EF50800807E140
:10175000C1D9EF50840803E1EBD98C0EEF6E709085
:10176000689A1200698468986D820001010E806F8A
:1017700020DA750E61EF0DF00001806B1ADA740E3D
:10178000A0D96D92699468A402D06894FCD7120025
:10179000A3DA00012D0E886FFD0E811538E17E0E53
:1017A0008115E8407F0B040DF3CF63F0F4CF64F0B4
:1017B000000E6327040E642363C065F064C066F006
:1017C000B7D9EF503C0BE842E8420D081EE1DF6A52
:1017D000080EDF5C16E2ACD9020EE926000ED0D965
:1017E000EF50E66EDF50EA6A180FE96E040EEA2247
:1017F000E552E750EF6E9CD94ADAEE2AEF22DF2A53
:10180000E7D796D995DA0AD807D021D805D0FD0EAA
:101810008115040801E12AD8E55266D100016F6BF9
:10182000896B8C6B8D6B836B706B54D9EF9E52D927
:10183000EF9E0EDAEF9E736B746B756B786B796B42
:101840007A6B4DD8B6D9030E3CD920EF0AF0020EC0
:101850000001705D02E18DEF0AF0706B835104E1CD
:1018600027D98C0EEF6E1200836B120035DA32D955
:10187000EF50400B01E0010EDF6E080E0001605DCD
:1018800008E11AC46EFF6E5002E0100E01D0040E83
:10189000606F700513E11ED940D9FFDD020E000113
:1018A0006F5D03E117D9840E07D0DF5003E112D931
:1018B000C80E02D00FD9880EEF6E0FD078AF0CD0C3
:1018C0007B517C1107E005D07CC0FAFF00017B5101
:1018D000F96EFADF0001789F706BE55205D10401C3
:1018E0001851600BE842E842E842E842E842000949
:1018F00001E0120019510C0A45E00B0A3FE00C0A06
:1019000031E0010A22E00B0A1EE0020A1CE0030A91
:1019100018E0080A10E0010A0CE00F0A08E0030AC8
:1019200001E012000001738F080E606F12002AEFB1
:101930000BF0F1EF0AF00001610E716F000E726F93
:101940000CD067EF0BF0C3EF0CF01C510001716F6E
:10195000726B620E7127000E72237381010E746F19
:10196000738F12000001738F04011C51EA6A620F29
:10197000E96E000EEA221AC4EFFF12001AD9020E15
:1019800061EF0DF01200ABD8050EE12604011A0537
:1019900010E118511F0B00090CE10001738F030EB9
:1019A0000401195D04E10001010E7F6F02D0000106
:1019B0007F6B04011A5101E074D018511F0B02080B
:1019C00070E11C510F0B00096CE01C510F0B01085A
:1019D00068E3200E0001605D64E1738F04011CBFA9
:1019E00004D061D9E0D8EBD803D062D9DCD8EBD8E9
:1019F000EA22020EEFCFDBFF24D9010B03E1000E38
:101A0000DF9401D0DF841CBF02D04DD901D050D962
:101A1000EA22DECFEEFFDDCFEDFF030E195D0CE114
:101A20004FD907E01CBF02D0CAD801D0CCD8EA22D7
:101A3000EF82840E83D935D0DF7442D906E045D8D1
:101A4000EF9E43D8EF8C19D902D03FD8EF8CDF74CA
:101A5000F8D8020B02E134D90DE004011CBF02D01A
:101A6000AED801D0B0D8EA22EF923B0E0B6E56D919
:101A700004D902D03B0E52D904011C510F0B0C6A41
:101A8000700F0B6E0F0E0C22030E0BC0DBFF040E4B
:101A90000CC0DBFF030EDBCFE9FF040EDBCFEAFF58
:101AA000EF90050EE15C02E2E16AE552E16E1CD0C6
:101AB00039D93ED928EF0EF0FE0EEA6ADB346FEF1B
:101AC0000EF0E66EE66A7DEF0EF0DECFE9FFDDCFC9
:101AD000EAFF12006BC0E9FF6CC0EAFF1200D9CF29
:101AE000E6FFE1CFD9FF1200E552E7CFD9FF1200A0
:101AF0001C510F0BE96EEA6AD890E936EA361200FB
:101B00000E6EFD0EDB50E8240D6EFE0EDB50040D54
:101B1000F3500D240E24040D1200B9D8200EEE6EE1
:101B2000040EED6E1200FE0EEA6ADB3476EF0EF064
:101B300063C0E9FF64C0EAFF1200DF50040DF3CF79
:101B4000E9FFF4CFEAFF000EE926040EEA22EE6A6E
:101B5000EE6AEE6AEE6ADF2A1200DF50DAD8EA2275
:101B6000EF6ADF50D1D8EA22EF6ADF2A1200010EB5
:101B7000E66EE66AE66A710EE66E0F0E64EF0EF030
:101B8000EA22EE50EFCFEAFFE96E1200E66E7DC06A
:101B9000E9FF7EC0EAFF7D2B000E7E23E552E75071
:101BA000EF6EDF061200EA22EECFDEFFEDCFDDFFA3
:101BB0001200000EE66EE66AE66EE66A12001C513E
:101BC0000F0B84EF0EF01C510F0B89EF0EF00C225F
:101BD0000BC0DEFF0CC0DDFF1200DF500B6E0C6A85
:101BE000060E0B5C000E0C581200FE0EDBCFE6FF5B
:101BF000EAEC09F0E552E5521200F7220900F5CFB0
:101C000071F00A00F5CF72F01200170E6F6E9F0E82
:101C10006B6E7B0E696E1200010EE66EE66A000EB8
:101C2000E66EE66A1200F76A7125F66E7251F722C7
:101C3000080012001A51F66EF76AD890F636F73699
:101C40001200D950020FE96EDACFEAFFEF5012000E
:101C500065C0E9FF66C0EAFF120052DFF3CF0BF068
:101C6000F4CF0CF0000E0B26040EB1DF840E9EEFB5
:101C70000EF035DF020EE1261200020EE66EE66A75
:101C8000DECFE6FFDDCFE6FF050E61EF0DF0020EC1
:101C9000E926000EEA2212000BDF8C0EEF6E1ADF2F
:101CA000840EEF6E120024DF670EE926000E12008C
:101CB0001FDF6B0EE926000E1200FEDEC0EF0DF0F6
:101CC00004DFEF50800B1200E66E7FEC15F00B6E18
:101CD000050EE15E0B50120002DFE6521200FE0B11
:101CE000EA36E96E6B0EE926000E1200FE0BEA36AC
:101CF000E96E670EE926000E1200F2EC0FF00B6E93
:101D0000060EE15E0B501200EA6A860FE96E000EC5
:101D10001200EA6A840FE96E000E1200D6DEE85067
:101D2000EF16120095DFEE52400EEF6E28EF0EF028
:101D3000AEDF180EEE6E040EED6E1200C6DEE85039
:041D4000EF1212008C
:0C1D4400DACFE4FFE2CFDAFFE9CFE4FFE2
:101D5000EACFE4FFF6CFE4FFF7CFE4FFF5CFE4FFEF
:101D6000F3CFE4FFF4CFE4FFFACFE4FF00EE00F09E
:101D70000B0EE80403E3EECFE4FFFBD700EE0BF01D
:101D8000040EE80403E3EECFE4FFFBD7E65266EC73
:101D900008F0E55200EE0EF0040EE80403E3E5CF90
:101DA000EDFFFBD700EE0AF00B0EE80403E3E5CFEE
:101DB000EDFFFBD7E5CFFAFFE5CFF4FFE5CFF3FF6B
:101DC000E5CFF5FFE5CFF7FFE5CFF6FFE5CFEAFF7B
:101DD000E5CFE9FFE5CFDAFF1100D8CFE4FFE0CF90
:101DE000E4FFE46EDACFE4FFE652E552E5CFDAFF36
:101DF000E550E5CFE0FFE5CFD8FF100004D89EEC1A
:101E000009F00ED8FED70F0EC1120001996B9A6B24
:101E10009B6B9C6B02D816EF08F02AD98B8C1200B2
:101E2000200E0001E76E6019E8AE02D0E73402D060
:101E3000E750605D03E36D50020B01E092D00001BA
:101E400099519A1102E1000E08D099C0E9FF9AC099
:101E5000EAFFEF50800B01E0010E000901E081D0A4
:101E600004017E51BB0A5FE0600A59E0010A53E0B9
:101E7000070A47E0DC0A0CE0080A01E05FD08B8C1F
:101E8000000EE66EE66A27DBE552E552AAD956D087
:101E90008B8C040EE66E010EE66EDED9E552E5523D
:101EA0000401BE6F050EE66E010EE66ED5D9E55251
:101EB000E5520401BF6F400EE66EBE0EE66E040EE4
:101EC000E66E010EE66E010EE66E18EC09F00B6E82
:101ED000050EE15E0B50F3CF9BF0F4CF9CF00001B8
:101EE0009B519C1102E1000E08D09BC0E9FF9CC0F1
:101EF000EAFFEF50800B01E0010E000901E0EFD78F
:101F00001DD08B9C000EE66EE66AE5DAE552E552DE
:101F1000E1D98B8C13D08B9C17D98B8C0FD08B9CD9
:101F2000B3D88B8C0BD099EC09F0640EE66EAFEC55
:101F300015F0E552F29EAFEF07F000D0400EE66ECE
:101F40007E0EE66E040EE66EE66A010EE66E18EC94
:101F500009F00B6E050EE15E0B50F3CF99F0F4CF54
:101F60009AF0120012001200120012001200120069
:101F70001E0EE66E010EE66EF4EC08F0E552E55238
:101F800037EC14F0400EE66EBE0EE66E040EBDECAD
:101F900014F0F3CF9BF0F4CF9CF0120000017F050A
:101FA00020E1000180051DE1A09ADDDF6D920001B6
:101FB000806B0001100E9D6F0E0E9E6F9D07000E30
:101FC0009E5B9D519E11FAE16D84080E9D6F070E78
:101FD0009E6F9D07000E9E5B9D519E11FAE16D94D0
:101FE000A08A1200B8EC14F0FD0EDBCF06F0FE0E56
:101FF000DBCF07F0050E061801E1075036E0E86870
:10200000061802E17F0E07182FE0030E061801E103
:10201000075028E0020E061801E1075021E0010EEA
:10202000061801E107501AE0740E061801E1075086
:1020300013E0750E061801E107500CE0730E061848
:1020400001E1075005E0720E06180FE107500DD0B0
:102050008BDF0BD087DF09D086DF07D089DF05D083
:1020600086DF03D083DF01D080DF010E42EF14F062
:102070009368946A956A926A966A8B848B9204013B
:10208000FE6BFF6B956A1200E3DB936ADB50030A79
:102090000CE0010A05E0030A10E1DE52200E02D036
:1020A000DE52800EDD6E010E04D0DE52800EDD6E3B
:1020B000040EF36E020EF3CFDBFFC2EC14F0D3EC90
:1020C00014F039E2CBEC14F08B82E66AA00E77ECC8
:1020D00014F0936A040EDB6AD9EC14F029E2C7DB32
:1020E000000199519A1102E1000E08D099C0E9FF50
:1020F0009AC0EAFFEF50800B01E0010E0009F0E109
:10210000050EDB6A400EF36E050EC5DB0EE2050E12
:10211000DB50EA6A7E0FE96E040EEA22EF50E66EAB
:1021200040DAE552050EDB2AEDD7040EDB2AD4D7C0
:10213000030EDB2AC4D78B929368060EE15C02E2A1
:10214000E16AE552E16E9ED383DBDB50030A0CE0CB
:10215000010A05E0030A10E1DE52200E02D0DE5231
:10216000800EDD6E010E04D0DE52800EDD6E040E98
:10217000F36E020EF3CFDBFFC2EC14F0D3EC14F0DD
:1021800029E2CBEC14F0E66AA00EB1DB040EDB6AA8
:10219000D9EC14F01CE2050EDB6A400EF36E050E5E
:1021A0007ADB08E2CBD9E66E050EDFEC14F0050E03
:1021B000DB2AF3D7C8DB8EDB02E1000E03D041DB64
:1021C00001E0010E0009F7E1040EDB2AE1D7030E5E
:1021D000DB2AD4D7060EE15C02E2E16AE552E16E49
:1021E00051D3C6DB040EE126DE6ADD6ADECF0BF0DA
:1021F000DDCF0CF01E0E0B5C000E0C5826E2020E1A
:10220000DB6A030EDB6A020EDBCF0BF0030E74DB1E
:102210000DE294D9E66E020EDBCFE9FF030ED5DBAB
:10222000020EDB2A030EEFE3DB2AEDD78CDB52DB59
:1022300002E1000E03D005DB01E0010E0009F7E129
:10224000DF2A010ED3E3DB2AD1D7040EE15C02E2E0
:10225000E16AE552E16E16D356DBFD0EDBCFDEFF01
:10226000DBCFDDFF3BDB0CC098F0010E00010C144E
:10227000010802E18B8001D08B9049DB02E18D8463
:1022800001D08D9448DB02E18D8201D08D9247DB35
:1022900002E18D8001D08D9046DB02E1898A01D078
:1022A000899A45DB02E1898801D0899844DB02E103
:1022B000898601D0899643DB02E1898401D0899423
:1022C00081500B6E020EE15C02E2E16AE552E16EC2
:1022D0000B50D8D24DDB0B0EE126480E42DBDF6EF1
:1022E000470E3FDBE76E010EE7CFDBFF020EDB6A36
:1022F000DF50070A2DE0010A1FE0030A15E0010A7A
:1023000011E0070A0DE0010A09E0030A05E0010AED
:1023100021E1020EF36E19D0040E15D0080E13D071
:10232000100E11D0200E0FD0010EDB50030802E377
:102330003F0E09D0400E07D0010EDB50030802E328
:102340007D0E01D0800EF36E020EF3CFDBFF02D0C4
:10235000020EDB68000EE66EE66ABDD8E552E55275
:10236000030EDB6A040EDB6AA7DA000E0B5C010EBB
:102370000C5827E2050EDB6A060EDB6A050EDBCF82
:102380000BF0060EB9DA0DE2D9D8E66E050EDBCFFA
:10239000E9FF060E1ADB050EDB2A060EEFE3DB2A49
:1023A000EDD7D1DA97DA02E1000E03D04ADA01E084
:1023B000010E0009F7E1030EDB2A040ED5E3DB2A48
:1023C000D3D7030EDB6A040EDB6A76DA020EDB0477
:1023D0000D6E0E6AE8500B5C0E500C5848E2070E6A
:1023E000DB6A200EF36E080EF3CFDBFF070EDBCFA8
:1023F000E6FF080EDBCFE6FF5FDA010E0B24E66E88
:1024000045DAE66A400E73DA050EDB6A060EDB6A11
:10241000050EDBCF0BF0060EDBCF0CF0000E0B5CD5
:10242000010E0C581EE2090EDB6A400EF36E090E17
:1024300032DA07E283D8E66E090EC1DA090EDB2A2A
:10244000F4D781DA47DA02E1000E03D0FAD901E0CD
:10245000010E0009F7E1050EDB2A060ED9E3DB2A9F
:10246000D7D7030EDB2A040EB0E3DB2AAED70B0E60
:10247000E15C02E2E16AE552E16E04D281CFBEF492
:1024800081CFBEF41CD926DA02E1000E03D0D9D9DF
:1024900001E0010E0009F7E112D91CDA02E1000E99
:1024A00003D0CFD901E0010E0009F7E108D912DA13
:1024B00002E1000E03D0C5D901E0010E0009F7E1E9
:1024C000FED808DA02E1000E03D0BBD901E0010E0C
:1024D0000009F7E112004CDAFD0EDBCFFEF4FE0E30
:1024E000DBCFFFF4956AFEC48CFFEDD902E18B804F
:1024F00001D08B900CDA02E18D8401D08D940BDA3F
:1025000002E18D8201D08D920ADA02E18D8001D044
:102510008D9009DA02E1898A01D0899A08DA02E10C
:10252000898801D0899807DA02E1898601D08996E5
:1025300006DA02E1898401D08994A4D1FEC48CFF1B
:102540000401FE5128E1BFD902E18B8001D08B90BC
:10255000DED902E18D8401D08D94DDD902E18D8236
:1025600001D08D92DCD902E18D8001D08D90DBD934
:1025700002E1898A01D0899ADAD902E1898801D0F9
:102580008998D9D902E1898601D08996D8D902E102
:10259000898401D089940401FE2B000EFF23815011
:1025A0001200E6D9FE0EDB508A6EFEC48CFF0401D9
:1025B000FE512BE1FFC40BF00C6A85D902E18B8040
:1025C00001D08B90A4D902E18D8401D08D94A3D940
:1025D00002E18D8201D08D92A2D902E18D8001D0DD
:1025E0008D90A1D902E1898A01D0899AA0D902E10E
:1025F000898801D089989FD902E1898601D089967E
:102600009ED902E1898401D089948B94020EE66EF2
:10261000DBEC15F0E5528B84020EE66EDBEC15F078
:10262000E5520401FE2B000EFF232CD16CD9FC0EC9
:10263000DBCFDEFFDBCFDDFF936AFE0EDB508A6E61
:102640008B824CD90C6A0BC098F0010E00010B1460
:10265000010802E18B8001D08B9059D902E18D8471
:1026600001D08D9458D902E18D8201D08D9257D935
:1026700002E18D8001D08D9056D902E1898A01D086
:10268000899A55D902E1898801D0899854D902E103
:10269000898601D0899653D902E1898401D0899431
:1026A00005D98B9403D98B8401D98B92FFD8936879
:1026B000020EE15C02E2E16AE552E16EE3D081CF15
:1026C000BEF48C2A81CFBFF48C2A81CFC0F48C2A2F
:1026D00081CFC1F48C2A81CFC2F48C2A81CFC3F47C
:1026E0008C2A81CFC4F48C2A81CFC5F48C2A81CF67
:1026F000C6F48C2A81CFC7F48C2A81CFC8F48C2AE7
:1027000081CFC9F48C2A81CFCAF48C2A81CFCBF433
:102710008C2A81CFCCF48C2A81CFCDF48C2A81CF26
:10272000CEF48C2A81CFCFF48C2A81CFD0F48C2A9E
:1027300081CFD1F48C2A81CFD2F48C2A81CFD3F4EB
:102740008C2A81CFD4F48C2A81CFD5F48C2A81CFE6
:10275000D6F48C2A81CFD7F48C2A81CFD8F48C2A56
:1027600081CFD9F48C2A81CFDAF48C2A81CFDBF4A3
:102770008C2A81CFDCF48C2A81CFDDF48C2A81CFA6
:10278000DEF48C2A81CFDFF48C2A81CFE0F48C2A0E
:1027900081CFE1F48C2A81CFE2F48C2A81CFE3F45B
:1027A0008C2A81CFE4F48C2A81CFE5F48C2A81CF66
:1027B000E6F48C2A81CFE7F48C2A81CFE8F48C2AC6
:1027C00081CFE9F48C2A81CFEAF48C2A81CFEBF413
:1027D0008C2A81CFECF48C2A81CFEDF48C2A81CF26
:1027E000EEF48C2A81CFEFF48C2A81CFF0F48C2A7E
:1027F00081CFF1F48C2A81CFF2F48C2A81CFF3F4CB
:102800008C2A81CFF4F48C2A81CFF5F48C2A81CFE5
:10281000F6F48C2A81CFF7F48C2A81CFF8F48C2A35
:1028200081CFF9F48C2A81CFFAF48C2A81CFFBF482
:102830008C2A81CFFCF48C2A81CFFDF48C2AA3EF63
:1028400014F09BC0E9FF9CC0EAFFEF50800B120020
:102850008FD8060EE126470E84D8DF6E020EDB6AA3
:10286000490E7FD8E76E030EE7CFDBFF1200400E64
:10287000E66E7E0EE66E040E80D8F3CF99F0F4CFAC
:102880009AF01200E552E7CFD9FF1200CFDEE552F1
:10289000E552E5521200DBCFF4FFF350F45C120076
:1028A000040EEA22E552E750EF6E1200640EE66E67
:1028B000CDEC15F0E5521200030EDBCF0BF0040E49
:1028C000DBCF0CF01200FFC498F0010E0001981548
:1028D0000108120000019B519C111200DF508C6E08
:1028E000DECF0BF0DDCF0CF00CC00BF01200E66E6B
:1028F000F2DDE552E5521200DBCF0CF0400E0B5C2E
:10290000000E0C58120034D8020EE1261200020EFE
:10291000981502081200040E981504081200080EFB
:10292000981508081200100E981510081200200EB5
:10293000981520081200400E981540081200800ECD
:10294000981580081200400EE66EBE0EE66E040E6C
:10295000E66E010EE66E3FD8F3CF9BF0F4CF9CF00D
:102960001200E66E010EE66E77DCE552E5521200CB
:10297000D9CFE6FFE1CFD9FF1200E66EE66A010E7D
:10298000EBEF14F0000EE66EE66A0A0EE66E7EDFEE
:10299000030EDB6A1200E66A400EE66E030EDBCF22
:1029A000E6FF46EF14F0020EDB50F36E030E4BEF22
:1029B00014F0010EDB50F36E040E4BEF14F0DB50FD
:1029C000EA6ABE0FE96E50EF14F0DBCFEAFFBE0EED
:1029D000E92650EF14F0E66E18EC09F00B6E050EC8
:0629E000E15E0B50120045
:0A29E6002A0EF66E100EF76E000EBA
:1029F000F86E00010900F550936F0900F550946FCF
:102A000003E1936701D03DD00900F5508E6F0900B6
:102A1000F5508F6F0900F550906F09000900F550CF
:102A2000E96E0900F550EA6E090009000900F55049
:102A3000916F0900F550926F09000900F6CF95F0EB
:102A4000F7CF96F0F8CF97F08EC0F6FF8FC0F7FF64
:102A500090C0F8FF0001915302E1925307E0090092
:102A6000F550EE6E9107F8E29207F9D795C0F6FFA0
:102A700096C0F7FF97C0F8FF00019307000E945B24
:042A8000BFD71200AA
:0C2A84001201000200000040C016DD0539
:102A900000000102000109022000010100C032090A
:102AA00004000002FFFFFF000705010240000A07C3
:102AB00005810240000A040309041603520069005C
:102AC000760061006C002D0043006F007200700002
:102AD00026035500530042002000470061006D00AE
:102AE000650062006F0079002000440075006D00F1
:0E2AF000700065007200962AB62ABA2AD02A13
:022AFE00FE0ECA
:102B0000E3CFE9FFFF0EE3CFEAFFE9CFF3FFEACF20
:102B1000F4FFFB0EE35003E1FC0EE35009E0FB0E73
:102B2000E30602E2FC0EE306FD0EE350EE6EF1D783
:022B3000120091
:0E2B3200000EF36E00EE00F0020E07D8000E4B
:102B4000F36E04EE00F0050E01D81200EA6002D028
:0E2B5000EE6AFCD7F350E9601200EE6AFCD783
:022B5E00FF0E68
:102B6000E3500F6E480E01D04C0EE76EE72EFED7F5
:0E2B7000E76AE72EFED70F2EF7D700001200FF
:022B7E0011EE56
:102B800000F021EE00F0F86A0A9CF3EC14F0E6EC99
:0A2B900015F0FEEC0EF0FBD712006A
:062B9A00FF0EE3500F6E78
:102BA0001B0E00D001D0200EE76EE72EFED70F2EB1
:062BB000FAD700D012006C
:0A2BB600FF0EE350E84E120000008D
:0C2BC00000D000D000D0E82EFAD71200A0
:022BCC001200F5
:020000040030CA
:0100000024DB
:010001000EF0
:0100020037C6
:010003001EDE
:01000500807A
:010006008178
:0100080003F4
:0100090040B6
:01000A0003F2
:01000B006094
:01000C0003F0
:01000D0040B2
:00000001FF
