:020000040000FA
:06000000E1EF07F0120021
:0600080004EF08F01200F5
:060018000CEF08F01200DD
:020020000000DE
:0E002200949C8B8C0001636B67696869696947
:10003000666B010E6A6F1200D9CFE6FFE1CFD9FFE0
:10004000E652000163511FE1040108BF1BD0400EBE
:10005000E66E500EE66E010EE66E1CEC06F0E55202
:10006000E552E5520001010E636FDF6A400EDF5C6E
:1000700009E2DF50EA6AAB0FE96E000EEA22EF6A8E
:10008000DF2AF4D756D101015051080A01E140D1CD
:100090000F0A01E1F5D0010A01E1EAD0030A01E10A
:1000A0008ED0010A59E0070A4CE0010A01E041D173
:1000B0000001020EAB6F00013A0EAC6F0001010EA1
:1000C000AD6F0001010EAE6F0001AF6B100EB06F8F
:1000D000B16BB26B0001B36B300EB46FB56BB66B26
:1000E0000001030EB76F0001B86BB96B300EBA6F29
:1000F000BB6B00010E0EBC6FBD6BBE6BBF6B000116
:10010000010EC06F0001C16BC26B200EC36FC46BC8
:100110000001080EC56FC66BC76BC86B0001C969CB
:1001200004010CBF0DD0400EE66EAB0EE66E000E65
:10013000E66EE2EC05F0E552E552E5520001636B34
:10014000F8D00001010E6A6F0101515102E1000176
:100150006A6B0001636BEDD0400E0001646F656B4C
:100160000001000E645D010E65591FE2040064C0C9
:1001700000F065C001F0026A060E1F0B00C0F6FF1A
:1001800001C0F7FF02C0F8FF06E0D890F636F73658
:10019000F836E806FAE1940EA66E54D970EC06F033
:1001A0000001642B000E6523DBD7F66AF76A200E88
:1001B000F86E940EA66E46D90001636BBAD0300E6D
:1001C0000101535D07E100016A5101E118D9000105
:1001D000636BAFD0E8680001671905E1E86868194A
:1001E00002E1E868691906E151C167F052C168F09F
:1001F00053C169F0670EE96E000EEA6EEE50010120
:10020000511908E1EE500101521904E1EE500101CB
:10021000531900E12AE1DF6A01015551DF5C25E253
:100220003A0E0101D8805555DF24EA6A560FE96E6F
:10023000010EEA22EF50E66E00016651EA6A6B0F8A
:10024000E96E000EEA22E552E750EF6E0001662BE0
:100250000001672B000E6823000E6923100E0001B9
:10026000665D01E16BD8DF2AD7D70001636B61D0EF
:1002700065D800016769686969690001636B59D0D5
:100280000001070EAB6F51C1ACF052C1ADF053C1CC
:10029000AEF054C1AFF055C1B0F051C1F6FF52C13C
:1002A000F7FF53C1F8FFDF6A01015551DF5C1FE220
:1002B000F00E0101535D01E118D00900300EF85C29
:1002C00008E1050EF65C01E1F568080EF65C01E157
:1002D000F5683A0E0101D8805555DF24EA6AB10F5E
:1002E000E96E000EEA22F5CFEFFFDF2ADDD7040129
:1002F0000CBF0DD0400EE66EAB0EE66E000EE66E45
:10030000E2EC05F0E552E552E5520001636B11D0D5
:100310006D926D6ADF6AFF0EDF5C09E2E868E85003
:1003200004E0E80600D000D0FAD7DF2AF4D7FF00B7
:1003300000D0E552E552E7CFD9FF12000001EC6B87
:1003400066C000F0016A026A00500001675DF66E47
:10035000015000016859F76E025000016959F86EAA
:100360000F0EF6140001ED6FF00EF6160001EB6BA8
:10037000100E0001EB5D1FE20001ED5115E10001DF
:1003800066510FE00001EC51EA6A6B0FE96E000E56
:10039000EA22EF50F56E0D000001EC2B000166071C
:1003A00002D0F5680D0004D0F5680D000001ED07DE
:1003B0000001EB2BDDD70A00A40EA66E43D8000186
:1003C000EB6B000166510001EB5D18E20001EC519E
:1003D0000001EB25EA6A6B0FE96E000EEA22EF508E
:1003E000E66E0001EB51EA6A6B0FE96E000EEA223D
:1003F000E552E750EF6E0001EB2BE3D7120051C13D
:10040000F6FF52C1F7FF53C1F8FF0001EE6B010187
:1004100055510001EE5D15E23A0E0101D8805555A7
:100420000001EE25EA6A560FE96E010EEA22EF504E
:10043000F56E0C00C40EA66E05D809000001EE2B67
:10044000E6D71200F29E550EA76EAA0EA76EA682E0
:08045000A6B2FED7A69412002B
:08045800D9CFE6FFE1CFD9FF87
:10046000E6526C5032E16896040100513C0BE842C0
:10047000E8420D0828E1180E021923E1040E0319C1
:1004800020E1100E026F040E036FDF6ADF50006E72
:10049000016A080E005C000E015813E2DF50EA6AA0
:1004A000180FE96E040EEA22EF50E66EDF50EA6A9A
:1004B000100FE96E040EEA22E552E750EF6EDF2AD4
:1004C000E5D711D80AD048D808D0040E6C5C03E1F7
:1004D00068965FD802D0000E01D0010EE552E552B9
:1004E000E7CFD9FF1200D9CFE6FFE1CFD9FFE6521F
:1004F000040104BF046B0101986B906B916B966BC8
:10050000976BE7EC03F0DF6ADF50006E016A010EC3
:10051000005C000E01581AE20101915117E1F76ADF
:10052000DF34FE0BF736F66EAE0EF6260E0EF72211
:100530000900F5CF00F00800F5CF01F004D001C0AC
:10054000FAFF0050F96EFBDFDF2ADED7F6D8E5525E
:10055000E552E7CFD9FF1200020E0101905D0EE1D6
:10056000AFD80401180E026F040E036F080E016F5E
:1005700000BD02D0C80E0BD0880E09D023D90401CB
:10058000080E016F100E026F040E036F8C0E006FC9
:100590001200040E0001F95D09E112C46EFF6E50F5
:1005A000000802E2050E01D0030EF96F010190056B
:1005B00010E111D8020E0101985D03E10401840EDF
:1005C00006D0040104BD02D0C80E01D0880E046F0D
:1005D0001200E2EF03F0D9CFE6FFE1CFD9FF020E20
:1005E000E1260101080E965D000E97590DE296C1B5
:1005F000DEFF97C1DDFF985102E1010E03D098059F
:1006000006E1020E986F03D0080EDE6EDD6A04016B
:1006100004930491010EDB500413DFCF05F4000EA8
:10062000DB500101965F010EDB50975B180E946F53
:10063000040E956F0001FAA31DD0D9CFE9FFDACFE0
:10064000EAFFEE50ED1032E092C1F6FF93C1F7FFE2
:100650000800F55094C1E9FF95C1EAFFEF6E010172
:10066000942B000E9523922B9323DF06010EE5E2D7
:10067000DB06E3D7D9CFE9FFDACFEAFFEE50ED1082
:1006800015E092C1E9FF93C1EAFFEF5094C1E9FF81
:1006900095C1EAFFEF6E0101942B000E9523922B7A
:1006A0009323DF06010EE6E2DB06E4D7020EE15CEF
:1006B00002E2E16AE552E16EE552E7CFD9FF1200AE
:1006C000D9CFE6FFE1CFD9FF020EE126030E0401E8
:1006D0000015E76E010EE7CFDBFF01C4DFFFDE5040
:1006E00001019627DD509723180E926F040E936F29
:1006F000D9CFE9FFDACFEAFFEE50ED1014E092C156
:10070000E9FF93C1EAFFEF5094C1E9FF95C1EAFF09
:10071000EF6E942B000E9523922B9323DF06010E90
:10072000E7E2DB06E5D7020EE15C02E2E16AE552B0
:10073000E16EE552E7CFD9FF12006D9801019151AA
:100740000BE10401080E016F100E026F040E036F1F
:10075000840E006F040123D0040110AF22D00101E8
:1007600096510401165D010197510401175904E2E5
:1007700016C496F117C497F12EDF0101010E906F98
:100780000401080E016F100E026F040E036F800E3D
:10079000006F0401180E066F040E076FC80E046F79
:1007A00012000101020E906F0401056BC80E046F68
:1007B0000401080E016F180E026F040E036FC80EBD
:0E07C000006F12000101906B0401046B120027
:0207CE00040124
:1007D0001051600BE842E842E842E842E842000972
:1007E00001E012001151070A4CE00B0A4AE0070A27
:1007F0003BE0010A27E00B0A23E0020A21E0030A9A
:100800001DE0080A12E0010A0EE00F0A0AE0030ADE
:1008100001E012000101010E916F0001040EF96F59
:10082000120042EF04F099EF04F00101010E916F04
:100830000101FB0E926F000E936F10D0C0EF04F019
:100840000BEF05F00101010E916F0401145101013C
:10085000926F936BFC0E9227000E93230001FA9384
:100860000101010E966F12000101010E916F04014A
:100870001451EA6AFC0FE96E000EEA2212C4EFFF7F
:1008800012001200800E0401105D52E11351030AA0
:1008900030E0010A0CE0030A49E10101010E916F09
:1008A0000101EE0E926F0D0E936F120E3CD00101FE
:1008B000010E916F04011251F66EF76AD890F63668
:1008C000F736A40EF6260E0EF7220900F5CF92F1A8
:1008D0000A00F5CF93F1020E0101F76A9225F66E38
:1008E0009351F7220900F5CF96F10A00F5CF97F161
:1008F0001DD00101010E916F04011251F66EF76ACD
:10090000D890F636F736A80EF6260E0EF722090016
:10091000F5CF92F10A00F5CF93F192C1F6FF93C1A2
:10092000F7FF0800F5500101966F976B0001FA83FD
:1009300012000101010E916F0F0EE66E710EE66E50
:100940000F0EE66EE2EC06F0E552E552E552010EBE
:10095000E66EFC0EE66E000EE66EE2EC06F0E55288
:10096000E552E55212C4FBF00401125104E100010A
:10097000050EF96F12000001060EF96FCDEF05F0BC
:100980000401186B196B040110511F0B020A13E0CC
:10099000030A0DE0010A31E10101010E916F04012A
:1009A00018810001FAA129D00401188326D0010181
:1009B000010E916F22D00101010E916F04011451BB
:1009C0000F0B080DF350016A000F006E040E012298
:1009D0001451800B01E0010E040DF35001010024BD
:1009E000946F000E0120956F94C1E9FFEA6EEF50FD
:1009F000040B03E00401010E186F010191050AE1E7
:100A00000101180E926F040E936F0001FA93010119
:100A1000020E966F12000401120510E110511F0B17
:100A200000090CE10101010E916F030E0401115D3B
:100A300003E10001FA8102D00001FA910401125190
:100A400036E110511F0B020832E114510F0B00095F
:100A50002EE00101010E916F040114510F0B080DDE
:100A6000F350016A000F006E040E01221451800B36
:100A700001E0010E040DF35001010024946F000EFB
:100A80000120956F030E0401115D02E1840E03D075
:100A900014AF07D0400E94C1E9FF95C1EAFFEF6E95
:100AA0001200880E94C1E9FF95C1EAFFEF6E1200B3
:100AB000040110511F0B010801E01200145101E064
:100AC0001200060E115D28E11351230A23E0010AEA
:100AD0000FE0030A1FE10101020E916F0001FB0507
:100AE00005E10101120E926F0E0E936F090E0FD0E9
:100AF0000101020E916F0001FB0505E10101870E66
:100B0000926F0E0E936F0001FB0504E11D0E0101B3
:100B1000966F976B0001FA8304011051600BE84255
:100B2000E842E842E842E842010801E012001151BF
:100B30000B0A2BE0080A1BE0090A13E0080A09E087
:100B40000B0A05E0080A01E01200CBEF05F0CCEF3C
:100B500005F00101020E916F0101FD0E926F000E72
:100B60000DD00101020E916F13C4FDF012000101BE
:100B7000020E916F0101FE0E926F000E936F000145
:100B8000FA930101010E966F12000101020E916F9E
:100B900012C4FEF01200120012000001FF6B1E0EC4
:100BA000716E0401400E096F200E0A6F040E0B6F68
:100BB000880E086F0401600E0E6F040E0F6F400E5A
:100BC0000C6F1200D9CFE6FFE1CFD9FFE652FC0E41
:100BD000DB50400805E2400EF36EFC0EF3CFDBFF66
:100BE000DF6AFC0EDB50DF5C19E2DF50E76EFD0EC2
:100BF000DBCFE9FFFE0EDBCFEAFFE750E926000E70
:100C0000EA22EF50E66EDF50EA6A600FE96E040EEA
:100C1000EA22E552E750EF6EDF2AE3D7FC0EDBCF86
:100C20000DF4400E04010C170C7D880E0C13E552D8
:100C3000E552E7CFD9FF1200D9CFE6FFE1CFD9FFC8
:100C40000001FF6B040108BF30D0FC0EDBCF00F0C9
:100C50000951D880005403E2FC0E09C4DBFF0001F7
:100C6000FF6BFC0EDB50FF5D19E2FF51EA6A200FBB
:100C7000E96E040EEA22EF50E66EFF51E76EFD0EBC
:100C8000DBCFE9FFFE0EDBCFEAFFE750E926000EDF
:100C9000EA22E552E750EF6EFF2BE3D70401400E46
:100CA000096F0817087D880E08130001FF51E552EF
:060CB000E7CFD9FF12009E
:0A0CB6006DA60CD80001F90508E155
:100CC0006DBA06D0686A696A69806988020EF96F30
:100CD00012006D6A696A6D860001010EF96F1200DB
:100CE0000001F95101E1120068B425D86DB212007B
:100CF00068B038D868B817D868BA24D8030E00018D
:100D0000F95D01E212000101996B040E995D0AE29E
:100D100068A608D02CEC02F0000901E168960101F8
:100D2000992BF3D71200698468986D82A19AA08AE2
:100D30000300A09A12006D92699468A402D068948E
:100D4000FCD7120070A00CD0800E0401005D07E1FA
:100D5000840E0401045D03E104018C0E006F7090A9
:100D6000689A12006A6A686A9F0E6B6E7B0E696EE3
:100D70006E6A0F0EE66E710EE66E0F0EE66E22D8EC
:100D8000E552E552E552160E706E68A605D06896DB
:100D900000D000D00000F9D76D98E2EC03F0040118
:100DA000080E016F0401100E026F040E036F0401A0
:100DB0008C0E006F0001FA910001FB6B0001030E25
:100DC000F96F1200D9CFE6FFE1CFD9FFFD0EDBCFDF
:100DD000E9FFFE0EDBCFEAFFFC0EDB5004E0EE6A1B
:0E0DE000FC0EDB06F9D7E552E7CFD9FF120073
:020DEE001201F0
:100DF000000200000008D8043C00020001020001CB
:100E000009022900010100C03209040000020300A8
:100E10000000092111010001221D00070581034086
:100E20000001070501034000010403090434034DD8
:100E3000006900630072006F006300680069007061
:100E400000200054006500630068006E006F006CB5
:100E5000006F0067007900200049006E0063002EDB
:100E6000002603480049004400200055005300427A
:100E700000200042006F006F0074006C006F006182
:100E8000006400650072000600FF0901A10119015C
:100E90002940150026FF0075089540810019012999
:100EA000409100C0000E000E290E2D0E610EB00AFA
:100EB000200EF66E000EF76E000EF86E00010900AF
:100EC000F550F46F0900F550F56F03E1F46701D0B8
:100ED0003DD00900F550EF6F0900F550F06F0900A3
:100EE000F550F16F09000900F550E96E0900F55061
:100EF000EA6E090009000900F550F26F0900F5508B
:100F0000F36F09000900F6CFF6F0F7CFF7F0F8CF4E
:100F1000F8F0EFC0F6FFF0C0F7FFF1C0F8FF0001F6
:100F2000F25302E1F35307E00900F550EE6EF207C9
:100F3000F8E2F307F9D7F6C0F6FFF7C0F7FFF8C0FD
:0E0F4000F8FF0001F407000EF55BBFD71200AA
:020F4E000F0E84
:100F5000C16E82AC04D0070EC16E00EF08F00DD850
:100F6000040015D8060E0001F95D05E16D50020B75
:100F700002E11CEC00F0F4D71200140E6F6E0001B9
:100F8000F96B0001FA6B0001FB6B11EF00F05BECF9
:060F900006F070EF06F010
:0A0F9600000EF36E00EE00F0020EF4
:100FA00007D8000EF36E04EE00F0050E01D8120013
:100FB000EA6002D0EE6AFCD7F350E9601200EE6AF4
:020FC000FCD75C
:0E0FC20011EE00F021EE00F0F86A049C58ECED
:0E0FD00007F0EFEC07F0A7EC07F0FBD71200DC
:020FDE001200FF
:020000040030CA
:0100000024DB
:010001000EF0
:0100020037C6
:010003001EDE
:01000500807A
:010006008178
:0100080003F4
:0100090040B6
:01000A0003F2
:01000B006094
:01000C0003F0
:01000D0040B2
:00000001FF
